:100000000C9446000C9465000C9465000C946500FB
:100010000C9465000C9465000C9465000C946500CC
:100020000C9465000C9465000C9465000C946500BC
:100030000C9465000C94DE000C9465000C94650033
:100040000C9465000C9465000C9465000C9465009C
:100050000C9465000C9465000C9465000C9465008C
:100060000C9465000C9465000C9465000C9465007C
:100070000C9465000C9465000C9465000C9465006C
:100080000C9465000C9465000C94650011241FBE4F
:10009000CFEFD0E4DEBFCDBF11E0A0E0B1E0E2E2FF
:1000A000FAE000E00BBF02C007900D92A434B10744
:1000B000D9F721E0A4E4B1E001C01D92AF35B20749
:1000C000E1F70E9479030C940F050C940000CF9384
:1000D000DF9300D01F92CDB7DEB789837B836A831D
:1000E00089818A3031F48A819B81BC018DE00E9434
:1000F000670080EC90E0FC018081882F90E08072A6
:100100009927892BB1F386EC90E02981FC012083AB
:1001100080E090E00F900F900F90DF91CF910895C5
:10012000CF93DF93CDB7DEB781E890E02BE0FC0101
:10013000208388E890E02DE730E0FC0131832083C4
:100140008FE690E022E0FC01208384E890E0FC014F
:100150001182108280910E0190910F01A0911001E7
:10016000B09111018093450190934601A0934701FE
:10017000B09348018FE590E02FE530E0F901208150
:100180002068FC0120830000DF91CF910895CF9378
:10019000DF93CDB7DEB781E890E0FC01108200006C
:1001A000DF91CF910895CF93DF93CDB7DEB781E094
:1001B000809344010000DF91CF9108951F920F9228
:1001C00000905F000F92112400905B000F922F931C
:1001D0003F934F935F936F937F938F939F93AF93CF
:1001E000BF93EF93FF93CF93DF93CDB7DEB78091AB
:1001F000450190914601A0914701B09148010197B6
:10020000A109B1098093450190934601A09347014C
:10021000B09348018091450190914601A09147011A
:10022000B0914801892B8A2B8B2B91F40E94D3002B
:1002300080910E0190910F01A0911001B0911101D8
:100240008093450190934601A0934701B0934801E4
:100250000000DF91CF91FF91EF91BF91AF919F91FE
:100260008F917F916F915F914F913F912F910F905F
:1002700000925B000F9000925F000F901F90189506
:10028000CF93DF9300D000D0CDB7DEB769837A83F8
:100290008B839C8389819A81AB81BC8180930E0181
:1002A00090930F01A0931001B093110180910E0162
:1002B00090910F01A0911001B0911101809345011F
:1002C00090934601A0934701B093480100000F901E
:1002D0000F900F900F90DF91CF910895CF93DF9300
:1002E000CDB7DEB72C970FB6F894DEBF0FBECDBFEB
:1002F0006D837E838F83988729873A874B875C87B6
:100300008D819E81AF81B88529853A854B855C8535
:10031000BC01CD010E94ED04DC01CB0189839A83ED
:10032000AB83BC8389819A81AB81BC81892B8A2B69
:100330008B2B29F489859A85AB85BC8511C089856D
:100340009A85AB85BC858D839E83AF83B887898171
:100350009A81AB81BC8189879A87AB87BC87D0CFD4
:10036000BC01CD012C960FB6F894DEBF0FBECDBFF9
:10037000DF91CF910895CF93DF9300D000D01F92EB
:10038000CDB7DEB79D838C831A82198280E290E01C
:10039000FC01808180958B838C819D8181309105CA
:1003A00009F478C08230910509F47EC0892B09F0E8
:1003B00087C08B81833019F08B81882311F41D82D3
:1003C0001C828B81813079F582E090E09D838C8363
:1003D00080911901813039F11A8219821EC08981F8
:1003E0009A810196880F991F880F991F880F991F6E
:1003F000875E9E4FFC01208189819A81880F991F19
:10040000880F991F880F991F875E9E4FFC012083DC
:1004100089819A8101969A83898389819A81049737
:10042000F0F2109239018B81823009F048C081E0EE
:1004300090E09D838C8380913901813009F43FC025
:1004400084E090E09A8389831EC089819A81019714
:10045000880F991F880F991F880F991F875E9E4FDD
:10046000FC01208189819A81880F991F880F991F2B
:10047000880F991F875E9E4FFC01208389819A8196
:1004800001979A83898389819A81892BF1F6109249
:10049000190115C081E09B81992309F480E0882F20
:1004A00090E09D838C830CC08B81882319F480E0BD
:1004B00090E002C082E090E09D838C8301C0000048
:1004C0008C819D810F900F900F900F900F90DF9176
:1004D000CF910895CF93DF9300D000D000D0CDB757
:1004E000DEB79E838D831B828D819E818230910534
:1004F00009F468C0833091052CF4009759F00197F6
:10050000A9F1E2C08330910509F488C0049709F489
:10051000B1C0DAC01A8219821EC089819A818E5EAA
:100520009E4FFC018081882F90E047E050E02981B8
:100530003A81BA01621B730B9B0102C0880F991F9D
:100540002A95E2F7982F8B81892B8B8389819A8159
:1005500001969A83898389819A810897F4F28EEFB4
:100560008C8381E090E09E838D83AEC01A821982D5
:100570001EC089819A81865E9E4FFC018081882FF2
:1005800090E047E050E029813A81BA01621B730B89
:100590009B0102C0880F991F2A95E2F7982F8B8143
:1005A000892B8B8389819A8101969A83898389819A
:1005B0009A810897F4F28DEF8C8382E090E09E831D
:1005C0008D8382C01A8219821EC089819A818E5DB4
:1005D0009E4FFC018081882F90E047E050E0298108
:1005E0003A81BA01621B730B9B0102C0880F991FED
:1005F0002A95E2F7982F8B81892B8B8389819A81A9
:1006000001969A83898389819A810897F4F28BEF06
:100610008C8383E090E09E838D8356C01A8219827A
:100620001EC089819A81865D9E4FFC018081882F42
:1006300090E047E050E029813A81BA01621B730BD8
:100640009B0102C0880F991F2A95E2F7982F8B8192
:10065000892B8B8389819A8101969A8389838981E9
:100660009A810897F4F287EF8C8384E090E09E8370
:100670008D832AC01A8219821EC089819A818E5C5C
:100680009E4FFC018081882F90E047E050E0298157
:100690003A81BA01621B730B9B0102C0880F991F3C
:1006A0002A95E2F7982F8B81892B8B8389819A81F8
:1006B00001969A83898389819A810897F4F28FEE53
:1006C0008C831E821D82000088E290E02B81FC0159
:1006D00020838BE290E02C81FC0120838D819E8120
:1006E00026960FB6F894DEBF0FBECDBFDF91CF9137
:1006F00008950F931F93CF93DF93CDB7DEB72C9759
:100700000FB6F894DEBF0FBECDBF81E290E0FC01D2
:10071000108282E290E02FEFFC01208387E290E0DC
:100720002FEFFC01208388E290E0FC0110828AE236
:1007300090E02FEFFC0120838BE290E0FC0110821F
:1007400089E491E09A87898784E591E09C878B878B
:1007500082E090E098878F831092490181E090E0D9
:10076000A0E0B0E080934A0190934B01A0934C012C
:10077000B0934D0180914A0190914B01A0914C01A1
:10078000B0914D0180934E0190934F01A093500181
:10079000B09351018AE692E0909353018093520105
:1007A000109254018AE090E0A0E0B0E080935501FF
:1007B00090935601A0935701B09358018091550131
:1007C00090915601A0915701B09158018093590121
:1007D00090935A01A0935B01B0935C018BEB91E085
:1007E00090935E0180935D0189859A85FC018181EA
:1007F0009281A381B4818B839C83AD83BE8381E08E
:1008000090E09A83898325C089819A81880F991FF6
:100810009E012F5F3F4F820F931F0896FC0180813E
:100820009181FC0121813281438154818B819C81A2
:10083000AD81BE81BC01CD010E946E01DC01CB0106
:100840008B839C83AD83BE8389819A8101969A8331
:10085000898329813A818F81988528173907A0F2E9
:100860008B819C81AD81BE81BC01CD010E94400184
:100870000E9490001A821982A0C089819A81880FF3
:10088000991F9E012F5F3F4F820F931F0896FC0117
:1008900080819181FC012581368147815085898144
:1008A0009A81880F991FBE016F5F7F4F860F971F38
:1008B0000896FC0180819181FC0181819281A38154
:1008C000B481281739074A075B0708F445C08981B6
:1008D0009A81880F991F9E012F5F3F4F820F931FB0
:1008E0000896FC010081118189819A81880F991FE6
:1008F0009E012F5F3F4F820F931F0896FC0180815E
:100900009181FC012185328589819A81880F991F07
:10091000AE014F5F5F4F840F951F0896FC018081E9
:100920009181FC018081082E000C990BF901099539
:10093000F801808389819A81880F991F9E012F5F1A
:100940003F4F820F931F0896FC0180819181FC012B
:10095000158216821782108689819A81880F991FC5
:100960009E012F5F3F4F820F931F0896FC0160810D
:10097000718189819A81880F991F9E012F5F3F4F56
:10098000820F931F0896FC0180819181FC012581D3
:100990003681478150858B819C81AD81BE81820FDC
:1009A000931FA41FB51FFB0185839683A783B08780
:1009B00089819A8101969A83898329813A818F81DD
:1009C00098852817390708F458CF00008091440112
:1009D0008823E1F3109244014DCFA1E21A2EAA1B05
:1009E000BB1BFD010DC0AA1FBB1FEE1FFF1FA217DF
:1009F000B307E407F50720F0A21BB30BE40BF50BDC
:100A0000661F771F881F991F1A9469F76095709564
:100A1000809590959B01AC01BD01CF010895F8949C
:020A2000FFCF06
:100A2200000000020000000067000000000001005A
:100A320000000000000000000000010000000000B3
:100A420000010100000000000001010000000000A0
:100A52000001000000000000000000010101000090
:040A6200010101008D
:00000001FF
