:100000000C944D000C946C000C946C000C946C00DF
:100010000C946C000C946C000C946C000C946C00B0
:100020000C946C000C946C000C946C000C946C00A0
:100030000C946C000C94E5000C946C000C946C0017
:100040000C946C000C946C000C946C000C946C0080
:100050000C946C000C946C000C946C000C946C0070
:100060000C946C000C946C000C946C000C946C0060
:100070000C946C000C946C000C946C000C946C0050
:100080000C946C000C946C000C946C002304F4042D
:10009000B10592066A0742081A0911241FBECFEF64
:1000A000D0E4DEBFCDBF11E0A0E0B1E0ECE1F9E1CA
:1000B00000E00BBF02C007900D92AC34B107D9F736
:1000C00021E0ACE4B1E001C01D92A238B207E1F733
:1000D0000E94A10A0C948C0C0C940000CF93DF9327
:1000E00000D01F92CDB7DEB789837B836A83898175
:1000F0008A3031F48A819B81BC018DE00E946E00C0
:1001000080EC90E0FC018081882F90E0807299273C
:10011000892BB1F386EC90E02981FC01208380E0FB
:1001200090E00F900F900F90DF91CF910895CF93B3
:10013000DF93CDB7DEB781E890E02BE0FC012083B0
:1001400088E890E02DE730E0FC01318320838FE6E2
:1001500090E022E0FC01208384E890E0FC01118221
:10016000108280910E0190910F01A0911001B09129
:10017000110180934D0190934E01A0934F01B093D4
:1001800050018FE590E02FE530E0F90120812068F3
:10019000FC0120830000DF91CF910895CF93DF937E
:1001A000CDB7DEB781E890E0FC0110820000DF915E
:1001B000CF910895CF93DF93CDB7DEB781E08093E1
:1001C0004C010000DF91CF9108951F920F92009093
:1001D0005F000F92112400905B000F922F933F93CA
:1001E0004F935F936F937F938F939F93AF93BF933F
:1001F000EF93FF93CF93DF93CDB7DEB780914D019F
:1002000090914E01A0914F01B09150010197A10929
:10021000B10980934D0190934E01A0934F01B0938B
:10022000500180914D0190914E01A0914F01B091EC
:100230005001892B8A2B8B2B91F40E94DA0080913C
:100240000E0190910F01A0911001B09111018093C6
:100250004D0190934E01A0934F01B09350010000C7
:10026000DF91CF91FF91EF91BF91AF919F918F91CE
:100270007F916F915F914F913F912F910F900092DD
:100280005B000F9000925F000F901F901895CF9326
:10029000DF9300D000D0CDB7DEB769837A838B833C
:1002A0009C8389819A81AB81BC8180930E0190935C
:1002B0000F01A0931001B093110180910E01909154
:1002C0000F01A0911001B091110180934D01909305
:1002D0004E01A0934F01B093500100000F900F907A
:1002E0000F900F90DF91CF910895CF93DF93CDB70B
:1002F000DEB72C970FB6F894DEBF0FBECDBF6D836F
:100300007E838F83988729873A874B875C878D8187
:100310009E81AF81B88529853A854B855C85BC0176
:10032000CD010E94610CDC01CB0189839A83AB83F0
:10033000BC8389819A81AB81BC81892B8A2B8B2BD1
:1003400029F489859A85AB85BC8511C089859A85F4
:10035000AB85BC858D839E83AF83B88789819A8165
:10036000AB81BC8189879A87AB87BC87D0CFBC0122
:10037000CD012C960FB6F894DEBF0FBECDBFDF9136
:10038000CF910895CF93DF93CDB7DEB78AE790E0A2
:100390002AE730E0F9012081206EFC012083000073
:1003A000DF91CF910895CF93DF9300D000D01F92BB
:1003B000CDB7DEB79D838C831A82198283E290E0E9
:1003C000FC01808180958B8380915101882309F005
:1003D00094C08C819D818130910509F478C0823070
:1003E000910509F47EC0892B09F087C08B81833089
:1003F00019F08B81882311F41D821C828B8181303E
:1004000079F582E090E09D838C83809119018130A1
:1004100039F11A8219821EC089819A810196880F4A
:10042000991F880F991F880F991F875E9E4FFC01A7
:10043000208189819A81880F991F880F991F880FC1
:10044000991F875E9E4FFC01208389819A810196C6
:100450009A83898389819A810497F0F210923901F5
:100460008B81823009F048C081E090E09D838C83CD
:1004700080913901813009F43FC084E090E09A8393
:1004800089831EC089819A810197880F991F880FDF
:10049000991F880F991F875E9E4FFC0120818981DB
:1004A0009A81880F991F880F991F880F991F875E5F
:1004B0009E4FFC01208389819A8101979A838983C9
:1004C00089819A81892BF1F61092190115C081E07A
:1004D0009B81992309F480E0882F90E09D838C8391
:1004E0000CC08B81882319F480E090E002C082E088
:1004F00090E09D838C8301C000008C819D810F90D2
:100500000F900F900F900F90DF91CF910895CF93A0
:10051000DF9300D0CDB7DEB79A83898380915101F4
:10052000882309F053C089819A81892B09F04EC034
:1005300088E790E0FC01808191818739910590F4F2
:1005400081E0809322018091220180931A018091A1
:100550001A0180931201109232018091320180932E
:100560002A0133C088E790E0FC01808191818D32BF
:10057000914090F481E080932A0180912A01809338
:1005800022018091220180931A0110923201809100
:1005900032018093120119C088E790E0FC0180814C
:1005A0009181833C914088F481E080933201809175
:1005B000320180932A0180912A01809322011092B6
:1005C0001A0180911A0180931201000089819A8199
:1005D0000F900F90DF91CF910895CF93DF93CDB718
:1005E000DEB72F970FB6F894DEBF0FBECDBF9F8743
:1005F0008E8783E290E0FC01808180958B838091DF
:1006000019018C83809121018D83809129018E8332
:10061000809131018F838091390188878091120107
:10062000898780911A018A87809122018B87809126
:100630002A018C87809132018D8780913E019091B3
:100640003F0190933B0180933A018091400190914A
:10065000410190933D0180933C0120913A013091FA
:100660003B0180913C0190913D01220F331F220FED
:10067000331F220F331F820F931F8E5E9E4FFC018C
:1006800010828E859F858230910589F08330910597
:100690003CF4009709F49DC0019709F4B3C0D0C59C
:1006A0008330910579F0049709F485C0C9C58B8121
:1006B000843019F483E090E002C082E090E09F87EC
:1006C0008E87BEC582E090E090933F0180933E010B
:1006D00083E090E090934101809340011A82198257
:1006E00027C089819A81892B21F089819A81049779
:1006F00069F489819A81880F991F880F991F880F43
:10070000991F875E9E4FFC0110820DC089819A81DE
:10071000880F991F880F991F880F991F875E9E4F1A
:1007200021E0FC01208389819A8101969A83898343
:1007300089819A810597A8F21A82198227C0898136
:100740009A81892B21F089819A81049769F48981A2
:100750009A81880F991F880F991F880F991F8E5EA5
:100760009E4FFC0110820DC089819A81880F991FCC
:10077000880F991F880F991F8E5E9E4F21E0FC0104
:10078000208389819A8101969A83898389819A81BC
:100790000597A8F286E090E0909343018093420190
:1007A0008B81882319F480E090E002C084E090E01F
:1007B0009F878E8745C58FEF809352018B81882359
:1007C00019F480E090E002C084E090E09F878E877B
:1007D00037C580915301833020F4809154018330D8
:1007E00020F010925301109254011092520181E0B6
:1007F00090E09F878E8710924301109242011092E1
:1008000051011EC58B81843019F483E090E002C051
:1008100081E090E09F878E87809142019091430113
:10082000092E000CAA0BBB0B40E050E026E030E0A4
:10083000841B950B2817390708F401C58A5B9F4F65
:10084000FC010C94830C80913A0190913B019093B0
:100850003F0180933E0180913C0190913D010196C2
:10086000909341018093400180914001909141011A
:1008700021E0069709F020E0822F90E09093430159
:10088000809342018091400190914101069709F0C7
:10089000D3C48C818130B9F580913E0190913F01A4
:1008A000892B39F485E090E09093430180934201D5
:1008B000C3C480913E0190913F01019739F481E0DA
:1008C00090E09093430180934201B6C480913E0131
:1008D00090913F01029739F485E090E090934301B5
:1008E00080934201A9C486E090E0909343018093F5
:1008F000420182E090E09F878E87809154018F5F54
:100900008093540199C48D818130B9F580913E0165
:1009100090913F01019739F484E090E09093430176
:100920008093420189C480913E0190913F010297DA
:1009300039F481E090E090934301809342017CC4BC
:1009400080913E0190913F01039739F485E090E05A
:1009500090934301809342016FC486E090E09093AE
:1009600043018093420182E090E09F878E878091CF
:1009700054018F5F809354015FC480913E01909138
:100980003F01029739F484E090E090934301809313
:10099000420152C480913E0190913F01039739F486
:1009A00081E090E0909343018093420145C480919F
:1009B0003E0190913F01049739F484E090E09093D8
:1009C00043018093420138C486E090E09093430154
:1009D0008093420182E090E09F878E87809154014E
:1009E0008F5F8093540128C480913A0190913B011C
:1009F00090933F0180933E0180913C0190913D0195
:100A00000197909341018093400180914001909122
:100A10004101019709F012C489858130A9F58091BF
:100A20003E0190913F01892B39F483E090E090934F
:100A300043018093420102C480913E0190913F01A5
:100A4000019729F41092430110924201F7C380915B
:100A50003E0190913F01029739F483E090E090933A
:100A6000430180934201EAC386E090E09093430102
:100A70008093420182E090E09F878E8780915301AE
:100A80008F5F80935301DAC38A858130A9F5809105
:100A90003E0190913F01019739F482E090E09093FC
:100AA000430180934201CAC380913E0190913F016E
:100AB000029729F41092430110924201BFC3809122
:100AC0003E0190913F01039739F483E090E09093C9
:100AD000430180934201B2C386E090E090934301CA
:100AE0008093420182E090E09F878E87809153013E
:100AF0008F5F80935301A2C380913E0190913F018B
:100B0000029739F482E090E0909343018093420190
:100B100095C380913E0190913F01039729F4109273
:100B20004301109242018AC380913E0190913F019E
:100B3000049739F482E090E090934301809342015E
:100B40007DC386E090E0909343018093420182E070
:100B500090E09F878E87809153018F5F8093530130
:100B60006DC380913A0190913B01892B31F08091C6
:100B70003A0190913B01019702C080E090E0909390
:100B80003F0180933E0180913C0190913D0101968F
:100B900090934101809340018091400190914101E7
:100BA000069709F0ABC08C818130B9F580913E0188
:100BB00090913F01892B39F485E090E090934301B7
:100BC000809342013CC380913E0190913F01019787
:100BD00039F481E090E090934301809342012FC368
:100BE00080913E0190913F01029739F485E090E0B9
:100BF000909343018093420122C386E090E090935A
:100C000043018093420182E090E09F878E8780912C
:100C100054018F5F8093540112C38D818130B9F5E7
:100C200080913E0190913F01019739F484E090E07A
:100C3000909343018093420102C380913E019091C1
:100C40003F01029739F481E090E090934301809353
:100C50004201F5C280913E0190913F01039739F422
:100C600085E090E09093430180934201E8C286E0E2
:100C700090E0909343018093420182E090E09F874F
:100C80008E87809154018F5F80935401D8C28091E8
:100C90003E0190913F01029739F484E090E09093F7
:100CA000430180934201CBC280913E0190913F016C
:100CB000039739F481E090E09093430180934201DF
:100CC000BEC280913E0190913F01049739F484E0C7
:100CD00090E09093430180934201B1C286E090E09E
:100CE000909343018093420182E090E09F878E873A
:100CF000809154018F5F80935401A1C280913E0185
:100D000090913F01892B39F483E090E09093430167
:100D10008093420194C282E090E0909343018093DB
:100D200042018DC280913A0190913B0101969093CE
:100D30003F0180933E0180913C0190913D010196DD
:100D40009093410180934001809140019091410135
:100D5000069709F0ABC08C818130B9F580913E01D6
:100D600090913F01892B39F485E090E09093430105
:100D70008093420164C280913E0190913F010197AE
:100D800039F481E090E0909343018093420157C28F
:100D900080913E0190913F01029739F485E090E007
:100DA00090934301809342014AC286E090E0909381
:100DB00043018093420182E090E09F878E8780917B
:100DC00054018F5F809354013AC28D818130B9F50F
:100DD00080913E0190913F01019739F484E090E0C9
:100DE00090934301809342012AC280913E019091E9
:100DF0003F01029739F481E090E0909343018093A2
:100E000042011DC280913E0190913F01039739F448
:100E100085E090E0909343018093420110C286E008
:100E200090E0909343018093420182E090E09F879D
:100E30008E87809154018F5F8093540100C280910E
:100E40003E0190913F01029739F484E090E0909345
:100E5000430180934201F3C180913E0190913F0193
:100E6000039739F481E090E090934301809342012D
:100E7000E6C180913E0190913F01049739F484E0EE
:100E800090E09093430180934201D9C186E090E0C5
:100E9000909343018093420182E090E09F878E8788
:100EA000809154018F5F80935401C9C180913E01AC
:100EB00090913F01049739F482E090E090934301D0
:100EC00080934201BCC183E090E090934301809302
:100ED0004201B5C180913A0190913B0101979093F5
:100EE0003F0180933E0180913C0190913D0101972B
:100EF0009093410180934001809140019091410184
:100F0000019709F0ABC089858130B9F580913E0128
:100F100090913F01892B39F483E090E09093430155
:100F2000809342018CC180913E0190913F010197D5
:100F300039F482E090E090934301809342017FC1B5
:100F400080913E0190913F01029739F483E090E057
:100F5000909343018093420172C186E090E09093A8
:100F600043018093420182E090E09F878E878091C9
:100F700053018F5F8093530162C18A858130B9F537
:100F800080913E0190913F01019739F482E090E019
:100F9000909343018093420152C180913E01909110
:100FA0003F01029739F482E090E0909343018093EF
:100FB000420145C180913E0190913F01039739F470
:100FC00083E090E0909343018093420138C186E032
:100FD00090E0909343018093420182E090E09F87EC
:100FE0008E87809153018F5F8093530128C1809138
:100FF0003E0190913F01029739F482E090E0909396
:101000004301809342011BC180913E0190913F01B9
:10101000039739F482E090E090934301809342017A
:101020000EC180913E0190913F01049739F482E016
:1010300090E0909343018093420101C186E090E0EB
:10104000909343018093420182E090E09F878E87D6
:10105000809153018F5F80935301F1C080913E01D5
:1010600090913F01892B39F485E090E09093430102
:1010700080934201E4C084E090E090934301809328
:101080004201DDC080913A0190913B01019690931D
:101090003F0180933E0180913C0190913D01019779
:1010A00090934101809340018091400190914101D2
:1010B000019709F0ABC089858130B9F580913E0177
:1010C00090913F01892B39F483E090E090934301A4
:1010D00080934201B4C080913E0190913F010197FD
:1010E00039F483E090E09093430180934201A7C0DC
:1010F00080913E0190913F01029739F483E090E0A6
:1011000090934301809342019AC086E090E09093CF
:1011100043018093420182E090E09F878E87809117
:1011200053018F5F809353018AC08A858130B9F55E
:1011300080913E0190913F01019739F482E090E067
:1011400090934301809342017AC080913E01909137
:101150003F01029739F483E090E09093430180933C
:1011600042016DC080913E0190913F01039739F497
:1011700083E090E0909343018093420160C086E059
:1011800090E0909343018093420182E090E09F873A
:101190008E87809153018F5F8093530150C080915F
:1011A0003E0190913F01029739F482E090E09093E4
:1011B00043018093420143C080913E0190913F01E1
:1011C000039739F483E090E09093430180934201C8
:1011D00036C080913E0190913F01049739F482E03E
:1011E00090E0909343018093420129C086E090E013
:1011F000909343018093420182E090E09F878E8725
:10120000809153018F5F8093530119C080913E01FB
:1012100090913F01049739F484E090E0909343016A
:10122000809342010CC085E090E09093430180934D
:10123000420105C0000003C0000001C00000000022
:101240008E859F85029719F48FEF8093510120912D
:101250003E0130913F018091400190914101220F68
:10126000331F220F331F220F331F820F931F8E5EF7
:101270009E4F21E0FC0120838E859F852F960FB61F
:10128000F894DEBF0FBECDBFDF91CF910895CF930D
:10129000DF93CDB7DEB728970FB6F894DEBF0FBE49
:1012A000CDBF98878F831B821C821D828091520143
:1012B0008F3F09F4F1C08F8198858230910509F440
:1012C00068C0833091052CF4009759F00197A9F17B
:1012D00023C18330910509F488C0049709F4B1C093
:1012E0001BC11A8219821EC089819A818E5E9E4F0F
:1012F000FC018081882F90E047E050E029813A810D
:10130000BA01621B730B9B0102C0880F991F2A95BB
:10131000E2F7982F8B81892B8B8389819A810196A3
:101320009A83898389819A810897F4F28EEF8E835C
:1013300081E090E098878F83EFC01A8219821EC0E7
:1013400089819A81865E9E4FFC018081882F90E082
:1013500047E050E029813A81BA01621B730B9B017F
:1013600002C0880F991F2A95E2F7982F8B81892B4D
:101370008B8389819A8101969A83898389819A8155
:101380000897F4F28DEF8E8382E090E098878F8348
:10139000C3C01A8219821EC089819A818E5D9E4FB8
:1013A000FC018081882F90E047E050E029813A815C
:1013B000BA01621B730B9B0102C0880F991F2A950B
:1013C000E2F7982F8B81892B8B8389819A810196F3
:1013D0009A83898389819A810897F4F28BEF8E83AF
:1013E00083E090E098878F8397C01A8219821EC08D
:1013F00089819A81865D9E4FFC018081882F90E0D3
:1014000047E050E029813A81BA01621B730B9B01CE
:1014100002C0880F991F2A95E2F7982F8B81892B9C
:101420008B8389819A8101969A83898389819A81A4
:101430000897F4F287EF8E8384E090E098878F839B
:101440006BC01A8219821EC089819A818E5C9E4F60
:10145000FC018081882F90E047E050E029813A81AB
:10146000BA01621B730B9B0102C0880F991F2A955A
:10147000E2F7982F8B81892B8B8389819A81019642
:101480009A83898389819A810897F4F28FEE8E83FB
:1014900018861F82000040C01A82198211C081E0A4
:1014A00090E0098002C0880F991F0A94E2F7982FF4
:1014B0008C81892B8C8389819A8101969A83898377
:1014C00080915301282F30E089819A8182179307F8
:1014D00034F31A82198211C080E190E0098002C0C1
:1014E000880F991F0A94E2F7982F8D81892B8D839D
:1014F00089819A8101969A83898380915401282F4A
:1015000030E089819A818217930734F39C818D8121
:10151000892B8B838BEF8E8388E290E02B81FC01FB
:1015200020838BE290E02E81FC0120838F819885BF
:1015300028960FB6F894DEBF0FBECDBFDF91CF91D6
:1015400008950F931F93CF93DF93CDB7DEB76097C6
:101550000FB6F894DEBF0FBECDBF84E290E0FC0171
:10156000108285E290E02FEFFC01208387E290E07B
:101570002FEFFC01208388E290E0FC0110828AE2D8
:1015800090E02FEFFC0120838BE290E0FC011082C1
:1015900088E0E4E4F1E0DE01199601900D928A956D
:1015A000E1F784E090E098878F831092560181E004
:1015B00090E0A0E0B0E08093570190935801A09391
:1015C0005901B0935A018091570190915801A0910F
:1015D0005901B0915A0180935B0190935C01A093F3
:1015E0005D01B0935E0187E499E090936001809380
:1015F0005F01109261018AE090E0A0E0B0E080938A
:10160000620190936301A0936401B093650180919E
:10161000620190916301A0916401B0916501809392
:10162000660190936701A0936801B093690183ED0F
:1016300091E090936B0180936A0110926C018CE2AF
:1016400091E0A0E0B0E080936D0190936E01A093D3
:101650006F01B093700180916D0190916E01A09126
:101660006F01B09170018093710190937201A0930A
:101670007301B093740187E892E0909376018093B0
:10168000750182E08093770186E990E0A0E0B0E008
:101690008093780190937901A0937A01B0937B01B4
:1016A0008091780190917901A0917A01B0917B01AC
:1016B00080937C0190937D01A0937E01B0937F0184
:1016C0008DEE92E0909381018093800189859A85C7
:1016D000FC0181819281A381B4818B839C83AD8342
:1016E000BE8381E090E09A83898325C089819A81B5
:1016F000880F991F9E012F5F3F4F820F931F0896FF
:10170000FC0180819181FC012181328143815481DE
:101710008B819C81AD81BE81BC01CD010E94750190
:10172000DC01CB018B839C83AD83BE8389819A814D
:1017300001969A83898329813A818F819885281718
:101740003907A0F28B819C81AD81BE81BC01CD01A6
:101750000E9447010E9497000E94C2011A821982CA
:10176000A0C089819A81880F991F9E012F5F3F4FEA
:10177000820F931F0896FC0180819181FC012581D5
:1017800036814781508589819A81880F991FBE01D2
:101790006F5F7F4F860F971F0896FC0180819181B4
:1017A000FC0181819281A381B481281739074A07FE
:1017B0005B0708F445C089819A81880F991F9E01B3
:1017C0002F5F3F4F820F931F0896FC01008111810C
:1017D00089819A81880F991F9E012F5F3F4F820F49
:1017E000931F0896FC0180819181FC01218532853F
:1017F00089819A81880F991FAE014F5F5F4F840FD7
:10180000951F0896FC0180819181FC018081082E42
:10181000000C990BF9010995F801808389819A815F
:10182000880F991F9E012F5F3F4F820F931F0896CD
:10183000FC0180819181FC0115821682178210863D
:1018400089819A81880F991F9E012F5F3F4F820FD8
:10185000931F0896FC016081718189819A81880FAC
:10186000991F9E012F5F3F4F820F931F0896FC0127
:1018700080819181FC0125813681478150858B8152
:101880009C81AD81BE81820F931FA41FB51FFB01F8
:1018900085839683A783B08789819A8101969A83ED
:1018A000898329813A818F8198852817390708F41F
:1018B00058CF000080914C018823E1F310924C0135
:1018C0004DCFA1E21A2EAA1BBB1BFD010DC0AA1F02
:1018D000BB1FEE1FFF1FA217B307E407F50720F099
:1018E000A21BB30BE40BF50B661F771F881F991F14
:1018F0001A9469F760957095809590959B01AC015D
:10190000BD01CF010895EE0FFF1F0024001C0BBE88
:0C1910000790F691E02D0994F894FFCFA9
:10191C0000000002000000006E000000000001004A
:10192C0000000000000000000000010000000000AA
:10193C000001010000000000000101000000000097
:10194C000001000000000000000002000300020083
:0C195C0003000600560161016C017701D8
:00000001FF
