:100000000C944D000C946C000C946C000C946C00DF
:100010000C946C000C946C000C946C000C946C00B0
:100020000C946C000C946C000C946C000C946C00A0
:100030000C946C000C94E5000C946C000C946C0017
:100040000C946C000C946C000C946C000C946C0080
:100050000C946C000C946C000C946C000C946C0070
:100060000C946C000C946C000C946C000C946C0060
:100070000C946C000C946C000C946C000C946C0050
:100080000C946C000C946C000C946C003804FA0412
:10009000A8057A0643070C08D50811241FBECFEF28
:1000A000D0E4DEBFCDBF11E0A0E0B1E0EEE2F9E1C7
:1000B00000E00BBF02C007900D92A035B107D9F741
:1000C00021E0A0E5B1E001C01D92A238B207E1F73E
:1000D0000E94110A0C94950C0C940000CF93DF93AE
:1000E00000D01F92CDB7DEB789837B836A83898175
:1000F0008A3031F48A819B81BC018DE00E946E00C0
:1001000080EC90E0FC018081882F90E0807299273C
:10011000892BB1F386EC90E02981FC01208380E0FB
:1001200090E00F900F900F90DF91CF910895CF93B3
:10013000DF93CDB7DEB781E890E02BE0FC012083B0
:1001400088E890E02DE730E0FC01318320838FE6E2
:1001500090E022E0FC01208384E890E0FC01118221
:10016000108280910E0190910F01A0911001B09129
:1001700011018093510190935201A0935301B093C8
:1001800054018FE590E02FE530E0F90120812068EF
:10019000FC0120830000DF91CF910895CF93DF937E
:1001A000CDB7DEB781E890E0FC0110820000DF915E
:1001B000CF910895CF93DF93CDB7DEB781E08093E1
:1001C00050010000DF91CF9108951F920F9200908F
:1001D0005F000F92112400905B000F922F933F93CA
:1001E0004F935F936F937F938F939F93AF93BF933F
:1001F000EF93FF93CF93DF93CDB7DEB7809151019B
:1002000090915201A0915301B09154010197A1091D
:10021000B1098093510190935201A0935301B0937F
:1002200054018091510190915201A0915301B091DC
:100230005401892B8A2B8B2B91F40E94DA00809138
:100240000E0190910F01A0911001B09111018093C6
:10025000510190935201A0935301B09354010000B7
:10026000DF91CF91FF91EF91BF91AF919F918F91CE
:100270007F916F915F914F913F912F910F900092DD
:100280005B000F9000925F000F901F901895CF9326
:10029000DF9300D000D0CDB7DEB769837A838B833C
:1002A0009C8389819A81AB81BC8180930E0190935C
:1002B0000F01A0931001B093110180910E01909154
:1002C0000F01A0911001B091110180935101909301
:1002D0005201A0935301B093540100000F900F906E
:1002E0000F900F90DF91CF910895CF93DF93CDB70B
:1002F000DEB72C970FB6F894DEBF0FBECDBF6D836F
:100300007E838F83988729873A874B875C878D8187
:100310009E81AF81B88529853A854B855C85BC0176
:10032000CD010E94CF0BDC01CB0189839A83AB8383
:10033000BC8389819A81AB81BC81892B8A2B8B2BD1
:1003400029F489859A85AB85BC8511C089859A85F4
:10035000AB85BC858D839E83AF83B88789819A8165
:10036000AB81BC8189879A87AB87BC87D0CFBC0122
:10037000CD012C960FB6F894DEBF0FBECDBFDF9136
:10038000CF910895CF93DF9300D000D01F92CDB7C7
:10039000DEB79D838C831A82198280E290E0FC0193
:1003A000808180958B8380915501882309F094C0CA
:1003B0008C819D818130910509F478C0823091054E
:1003C00009F47EC0892B09F087C08B81833019F036
:1003D0008B81882311F41D821C828B81813079F5F9
:1003E00082E090E09D838C8380911901813039F106
:1003F0001A8219821EC089819A810196880F991FDD
:10040000880F991F880F991F875E9E4FFC012081DE
:1004100089819A81880F991F880F991F880F991FCA
:10042000875E9E4FFC01208389819A8101969A8381
:10043000898389819A810497F0F2109239018B8126
:10044000823009F048C081E090E09D838C838091E8
:100450003901813009F43FC084E090E09A838983B8
:100460001EC089819A810197880F991F880F991F53
:10047000880F991F875E9E4FFC01208189819A8198
:10048000880F991F880F991F880F991F875E9E4FAD
:10049000FC01208389819A8101979A8389838981CC
:1004A0009A81892BF1F61092190115C081E09B8188
:1004B000992309F480E0882F90E09D838C830CC001
:1004C0008B81882319F480E090E002C082E090E004
:1004D0009D838C8301C000008C819D810F900F90C3
:1004E0000F900F900F90DF91CF910895CF93DF93EE
:1004F00000D0CDB7DEB79A838983809155018823D8
:1005000009F0C6C089819A81009721F0019709F40A
:1005100056C0ACC080913E0190913F01892B31F0D3
:1005200080913E0190913F01019791F481E0809389
:1005300022018091220180931A0180911A018093F7
:100540001201109232018091320180932A018BC0F6
:1005500080913E0190913F01029791F481E0809358
:100560002A0180912A0180932201809122018093A7
:100570001A0110923201809132018093120173C0EE
:1005800080913E0190913F01039739F080913E01A7
:1005900090913F01049709F066C081E08093320199
:1005A0008091320180932A0180912A018093220157
:1005B00010921A0180911A018093120154C0809107
:1005C0003E0190913F01039731F080913E0190915F
:1005D0003F01049791F481E08093220180912201F0
:1005E00080931A0180911A018093120110923201B6
:1005F0008091320180932A0138C080913E01909110
:100600003F01029791F481E080932A0180912A01B1
:10061000809322018091220180931A01109232016D
:10062000809132018093120120C080913E0190910F
:100630003F01892B31F080913E0190913F0101975C
:10064000A1F481E0809332018091320180932A01EC
:1006500080912A018093220110921A0180911A013F
:100660008093120102C0000001C000000E94450CEE
:1006700081709078992324F401978E6F9F6F019673
:1006800021E0019709F420E0822F90E09A8389838A
:1006900089819A810F900F90DF91CF910895CF9328
:1006A000DF93CDB7DEB72F970FB6F894DEBF0FBE3E
:1006B000CDBF9F878E8780E290E0FC01808180958E
:1006C0008B83809119018C83809121018D8380918E
:1006D00029018E83809131018F8380913901888730
:1006E00080911201898780911A018A878091220165
:1006F0008B8780912A018C87809132018D87809130
:100700003E0190913F0190933B0180933A0180918B
:1007100040019091410190933D0180933C012091D3
:100720003A0130913B0180913C0190913D01220FB3
:10073000331F220F331F220F331F820F931F8E5E32
:100740009E4FFC0110828E859F858130910509F4B2
:100750006EC08230910524F4892B09F45DC02BC54D
:100760008230910519F0039761F025C58B818430A3
:1007700019F483E090E002C082E090E09F878E87CA
:100780001AC582E090E090933F0180933E0183E0A0
:1007900090E090934101809340011A82198227C012
:1007A00089819A81892B21F089819A81049769F442
:1007B00089819A81880F991F880F991F880F991F27
:1007C000875E9E4FFC0110820DC089819A81880F3F
:1007D000991F880F991F880F991F875E9E4F21E0F0
:1007E000FC01208389819A8101969A83898389817A
:1007F0009A810597A8F286E090E090934301809358
:1008000042018B81882319F480E090E002C083E0EC
:1008100090E09F878E87CFC481E090E09F878E878E
:10082000109243011092420110925501C4C48B8171
:10083000843019F483E090E002C081E090E09F876B
:100840008E878091420190914301092E000CAA0BE2
:10085000BB0B40E050E026E030E0841B950B2817EE
:10086000390708F4A7C48A5B9F4FFC010C94F10B75
:1008700080913A0190913B0190933F0180933E011A
:1008800080913C0190913D010196909341018093AC
:100890004001809140019091410121E0069709F0CB
:1008A00020E0822F90E09093430180934201809159
:1008B000400190914101069709F079C48C81813003
:1008C00091F580913E0190913F01892B39F485E0AB
:1008D00090E0909343018093420169C480913E016E
:1008E00090913F01019739F481E090E090934301AA
:1008F000809342015CC480913E0190913F01029738
:1009000039F485E090E090934301809342014FC415
:1009100086E090E0909343018093420182E090E072
:100920009F878E8744C48D81813091F580913E01EF
:1009300090913F01019739F484E090E09093430156
:100940008093420134C480913E0190913F0102970F
:1009500039F481E090E0909343018093420127C4F1
:1009600080913E0190913F01039739F485E090E03A
:1009700090934301809342011AC486E090E09093E3
:1009800043018093420182E090E09F878E870FC4ED
:1009900080913E0190913F01029739F484E090E00C
:1009A000909343018093420102C480913E01909153
:1009B0003F01039739F481E090E0909343018093E5
:1009C0004201F5C380913E0190913F01049739F4B3
:1009D00084E090E09093430180934201E8C386E075
:1009E00090E0909343018093420182E090E09F87E2
:1009F0008E87DDC380913A0190913B0190933F0136
:100A000080933E0180913C0190913D01019790932C
:100A100041018093400180914001909141010197F3
:100A200009F0C7C38985813081F580913E0190919D
:100A30003F01892B39F483E090E090934301809348
:100A40004201B7C380913E0190913F01019729F483
:100A50001092430110924201ACC380913E019091EB
:100A60003F01029739F483E090E090934301809333
:100A700042019FC386E090E090934301809342013E
:100A800082E090E09F878E8794C38A85813081F5CC
:100A900080913E0190913F01019739F482E090E00E
:100AA000909343018093420184C380913E019091D1
:100AB0003F01029729F4109243011092420179C339
:100AC00080913E0190913F01039739F483E090E0DB
:100AD00090934301809342016CC386E090E0909331
:100AE00043018093420182E090E09F878E8761C33B
:100AF00080913E0190913F01029739F482E090E0AD
:100B0000909343018093420154C380913E019091A0
:100B10003F01039729F4109243011092420149C307
:100B200080913E0190913F01049739F482E090E07A
:100B300090934301809342013CC386E090E0909300
:100B400043018093420182E090E09F878E8731C30A
:100B500080913A0190913B01892B31F080913A01CB
:100B600090913B01019702C080E090E090933F019B
:100B700080933E0180913C0190913D0101969093BC
:100B8000410180934001809140019091410106977D
:100B900009F09CC08C81813091F580913E0190914B
:100BA0003F01892B39F485E090E0909343018093D5
:100BB000420100C380913E0190913F01019739F4B9
:100BC00081E090E09093430180934201F3C28091D1
:100BD0003E0190913F01029739F485E090E09093B7
:100BE000430180934201E6C286E090E09093430186
:100BF0008093420182E090E09F878E87DBC28D81E7
:100C0000813091F580913E0190913F01019739F437
:100C100084E090E09093430180934201CBC28091A5
:100C20003E0190913F01029739F481E090E090936A
:100C3000430180934201BEC280913E0190913F01E9
:100C4000039739F485E090E090934301809342014B
:100C5000B1C286E090E0909343018093420182E02C
:100C600090E09F878E87A6C280913E0190913F01C0
:100C7000029739F484E090E090934301809342011D
:100C800099C280913E0190913F01039739F481E030
:100C900090E090934301809342018CC280913E0189
:100CA00090913F01049739F484E090E090934301E0
:100CB000809342017FC286E090E09093430180934D
:100CC000420182E090E09F878E8774C280913E014E
:100CD00090913F01892B39F483E090E09093430198
:100CE0008093420167C282E090E090934301809339
:100CF000420160C280913A0190913B01019690932C
:100D00003F0180933E0180913C0190913D0101960D
:100D10009093410180934001809140019091410165
:100D2000069709F09CC08C81813091F580913E013D
:100D300090913F01892B39F485E090E09093430135
:100D40008093420137C280913E0190913F0101970B
:100D500039F481E090E090934301809342012AC2EC
:100D600080913E0190913F01029739F485E090E037
:100D700090934301809342011DC286E090E09093DE
:100D800043018093420182E090E09F878E8712C2E8
:100D90008D81813091F580913E0190913F010197C5
:100DA00039F484E090E0909343018093420102C2C1
:100DB00080913E0190913F01029739F481E090E0EB
:100DC0009093430180934201F5C180913E0190913F
:100DD0003F01039739F485E090E0909343018093BD
:100DE0004201E8C186E090E0909343018093420184
:100DF00082E090E09F878E87DDC180913E019091D7
:100E00003F01029739F484E090E09093430180938E
:100E10004201D0C180913E0190913F01039739F486
:100E200081E090E09093430180934201C3C180919F
:100E30003E0190913F01049739F484E090E0909353
:100E4000430180934201B6C186E090E09093430154
:100E50008093420182E090E09F878E87ABC18091B2
:100E60003E0190913F01049739F482E090E0909325
:100E70004301809342019EC183E090E0909343013F
:100E80008093420197C180913A0190913B01019773
:100E900090933F0180933E0180913C0190913D01F0
:100EA000019790934101809340018091400190917E
:100EB0004101019709F09CC08985813091F58091AD
:100EC0003E0190913F01892B39F483E090E09093AB
:100ED0004301809342016EC180913E0190913F0198
:100EE000019739F482E090E09093430180934201AE
:100EF00061C180913E0190913F01029739F483E0F6
:100F000090E0909343018093420154C186E090E0C9
:100F1000909343018093420182E090E09F878E8707
:100F200049C18A85813091F580913E0190913F01C0
:100F3000019739F482E090E090934301809342015D
:100F400039C180913E0190913F01029739F482E0CE
:100F500090E090934301809342012CC180913E0127
:100F600090913F01039739F483E090E0909343011F
:100F7000809342011FC186E090E0909343018093EB
:100F8000420182E090E09F878E8714C180913E01EC
:100F900090913F01029739F482E090E090934301F1
:100FA0008093420107C180913E0190913F010397D8
:100FB00039F482E090E09093430180934201FAC0BB
:100FC00080913E0190913F01049739F482E090E0D6
:100FD0009093430180934201EDC086E090E09093AE
:100FE00043018093420182E090E09F878E87E2C0B8
:100FF00080913E0190913F01892B39F485E090E08A
:101000009093430180934201D5C084E090E0909397
:10101000430180934201CEC080913A0190913B01FF
:10102000019690933F0180933E0180913C01909105
:101030003D010197909341018093400180914001CF
:1010400090914101019709F09CC08985813091F50B
:1010500080913E0190913F01892B39F483E090E02B
:101060009093430180934201A5C080913E019091ED
:101070003F01019739F483E090E09093430180931E
:10108000420198C080913E0190913F01029739F44E
:1010900083E090E090934301809342018BC086E00F
:1010A00090E0909343018093420182E090E09F871B
:1010B0008E8780C08A85813091F580913E01909124
:1010C0003F01019739F482E090E0909343018093CF
:1010D000420170C080913E0190913F01029739F426
:1010E00083E090E0909343018093420163C080913C
:1010F0003E0190913F01039739F483E090E0909393
:1011000043018093420156C086E090E090934301F2
:101110008093420182E090E09F878E874BC0809150
:101120003E0190913F01029739F482E090E0909364
:101130004301809342013EC080913E0190913F0166
:10114000039739F483E090E0909343018093420148
:1011500031C080913E0190913F01049739F482E0C3
:1011600090E0909343018093420124C086E090E098
:10117000909343018093420182E090E09F878E87A5
:1011800019C080913E0190913F01049739F484E0A9
:1011900090E090934301809342010CC085E090E081
:1011A000909343018093420105C0000003C00000FA
:1011B00001C0000000008E859F85029719F48FEF13
:1011C0008093550120913E0130913F018091400173
:1011D00090914101220F331F220F331F220F331F23
:1011E000820F931F8E5E9E4F21E0FC0120838E852F
:1011F0009F852F960FB6F894DEBF0FBECDBFDF914F
:10120000CF910895CF93DF9300D000D000D0CDB719
:10121000DEB79E838D831B828D819E8182309105F6
:1012200009F468C0833091052CF4009759F00197B8
:10123000A9F1E2C08330910509F488C0049709F44C
:10124000B1C0DAC01A8219821EC089819A818E5E6D
:101250009E4FFC018081882F90E047E050E029817B
:101260003A81BA01621B730B9B0102C0880F991F60
:101270002A95E2F7982F8B81892B8B8389819A811C
:1012800001969A83898389819A810897F4F28EEF77
:101290008C8381E090E09E838D83AEC01A82198298
:1012A0001EC089819A81865E9E4FFC018081882FB5
:1012B00090E047E050E029813A81BA01621B730B4C
:1012C0009B0102C0880F991F2A95E2F7982F8B8106
:1012D000892B8B8389819A8101969A83898389815D
:1012E0009A810897F4F28DEF8C8382E090E09E83E0
:1012F0008D8382C01A8219821EC089819A818E5D77
:101300009E4FFC018081882F90E047E050E02981CA
:101310003A81BA01621B730B9B0102C0880F991FAF
:101320002A95E2F7982F8B81892B8B8389819A816B
:1013300001969A83898389819A810897F4F28BEFC9
:101340008C8383E090E09E838D8356C01A8219823D
:101350001EC089819A81865D9E4FFC018081882F05
:1013600090E047E050E029813A81BA01621B730B9B
:101370009B0102C0880F991F2A95E2F7982F8B8155
:10138000892B8B8389819A8101969A8389838981AC
:101390009A810897F4F287EF8C8384E090E09E8333
:1013A0008D832AC01A8219821EC089819A818E5C1F
:1013B0009E4FFC018081882F90E047E050E029811A
:1013C0003A81BA01621B730B9B0102C0880F991FFF
:1013D0002A95E2F7982F8B81892B8B8389819A81BB
:1013E00001969A83898389819A810897F4F28FEE16
:1013F0008C831E821D82000088E290E02B81FC011C
:1014000020838BE290E02C81FC0120838D819E81E2
:1014100026960FB6F894DEBF0FBECDBFDF91CF91F9
:1014200008950F931F93CF93DF93CDB7DEB76097E7
:101430000FB6F894DEBF0FBECDBF81E290E0FC0195
:10144000108282E290E02FEFFC01208387E290E09F
:101450002FEFFC01208388E290E0FC0110828AE2F9
:1014600090E02FEFFC0120838BE290E0FC011082E2
:1014700088E0E8E4F1E0DE01199601900D928A958A
:10148000E1F784E090E098878F831092560181E025
:1014900090E0A0E0B0E08093570190935801A093B2
:1014A0005901B0935A018091570190915801A09130
:1014B0005901B0915A0180935B0190935C01A09314
:1014C0005D01B0935E0182E099E0909360018093AA
:1014D0005F01109261018AE090E0A0E0B0E08093AB
:1014E000620190936301A0936401B09365018091C0
:1014F000620190916301A0916401B09165018093B4
:10150000660190936701A0936801B093690182EC32
:1015100091E090936B0180936A0110926C018CE2D0
:1015200091E0A0E0B0E080936D0190936E01A093F4
:101530006F01B093700180916D0190916E01A09147
:101540006F01B09170018093710190937201A0932B
:101550007301B093740186E792E0909376018093D3
:10156000750182E08093770186E990E0A0E0B0E029
:101570008093780190937901A0937A01B0937B01D5
:101580008091780190917901A0917A01B0917B01CD
:1015900080937C0190937D01A0937E01B0937F01A5
:1015A0008FE493E0909381018093800189859A85EF
:1015B000FC0181819281A381B4818B839C83AD8363
:1015C000BE8381E090E09A83898325C089819A81D6
:1015D000880F991F9E012F5F3F4F820F931F089620
:1015E000FC0180819181FC01218132814381548100
:1015F0008B819C81AD81BE81BC01CD010E947501B2
:10160000DC01CB018B839C83AD83BE8389819A816E
:1016100001969A83898329813A818F819885281739
:101620003907A0F28B819C81AD81BE81BC01CD01C7
:101630000E9447010E9497001A821982A0C08981E6
:101640009A81880F991F9E012F5F3F4F820F931F32
:101650000896FC0180819181FC01258136814781BA
:10166000508589819A81880F991FBE016F5F7F4FD6
:10167000860F971F0896FC0180819181FC01818172
:101680009281A381B481281739074A075B0708F4C0
:1016900045C089819A81880F991F9E012F5F3F4F16
:1016A000820F931F0896FC010081118189819A8124
:1016B000880F991F9E012F5F3F4F820F931F08963F
:1016C000FC0180819181FC012185328589819A818B
:1016D000880F991FAE014F5F5F4F840F951F0896CB
:1016E000FC0180819181FC018081082E000C990B06
:1016F000F9010995F801808389819A81880F991FE2
:101700009E012F5F3F4F820F931F0896FC0180813F
:101710009181FC01158216821782108689819A8137
:10172000880F991F9E012F5F3F4F820F931F0896CE
:10173000FC016081718189819A81880F991F9E01C6
:101740002F5F3F4F820F931F0896FC01808191818C
:10175000FC0125813681478150858B819C81AD813B
:10176000BE81820F931FA41FB51FFB018583968343
:10177000A783B08789819A8101969A838983298179
:101780003A818F8198852817390708F458CF0000CF
:10179000809150018823E1F3109250014DCFA1E2D6
:1017A0001A2EAA1BBB1BFD010DC0AA1FBB1FEE1FDB
:1017B000FF1FA217B307E407F50720F0A21BB30B26
:1017C000E40BF50B661F771F881F991F1A9469F7A2
:1017D00060957095809590959B01AC01BD01CF01FE
:1017E0000895EE0FFF1F0024001C0BBE0790F6911A
:1017F000E02D09948F929F92AF92BF92CF92DF9289
:10180000EF92FF92CF93DF93EC01688179818A8117
:101810009B81611571058105910521F464E279EDE3
:101820008BE597E02DE133EF41E050E00E94540C4E
:1018300049015A019B01AC01A7EAB1E40E94730C73
:101840006B017C01ACEEB4EFA50194010E94810C08
:10185000DC01CB018C0D9D1DAE1DBF1DB7FF03C06C
:101860000197A109B04888839983AA83BB839F7796
:10187000DF91CF91FF90EF90DF90CF90BF90AF902E
:101880009F908F9008950C94FA0B84E491E00C944F
:10189000FA0BA0E0B0E08093440190934501A0933F
:1018A0004601B09347010895052E97FB1EF400945E
:1018B0000E946B0C57FD07D00E94CF0B07FC03D092
:1018C0004EF40C946B0C50954095309521953F4FFC
:1018D0004F4F5F4F089590958095709561957F4F1C
:1018E0008F4F9F4F08950E94860CA59F900DB49F27
:1018F000900DA49F800D911D11240895B7FF0C94A5
:10190000730C0E94730C821B930B0895A29FB0016D
:10191000B39FC001A39F700D811D1124911DB29F23
:0E192000700D811D1124911D0895F894FFCFC4
:10192E0000000002000000006E0000000000010038
:10193E000000000000000000000001000000000098
:10194E000001010000000000000101000000000085
:10195E000001000000000000000002000300020071
:10196E000300060001000000560161016C017701C1
:00000001FF
