:100000000C944D000C946C000C946C000C946C00DF
:100010000C946C000C946C000C946C000C946C00B0
:100020000C946C000C946C000C946C000C946C00A0
:100030000C946C000C94E5000C946C000C946C0017
:100040000C946C000C946C000C946C000C946C0080
:100050000C946C000C946C000C946C000C946C0070
:100060000C946C000C946C000C946C000C946C0060
:100070000C946C000C946C000C946C000C946C0050
:100080000C946C000C946C000C946C0050031204E3
:1000900032040405CD050D064C0611241FBECFEF1A
:1000A000D0E4DEBFCDBF11E0A0E0B1E0E2EAF2E1D2
:1000B00000E00BBF02C007900D92A435B107D9F73D
:1000C00021E0A4E5B1E001C01D92AB37B207E1F732
:1000D0000E948A070C944F090C940000CF93DF9381
:1000E00000D01F92CDB7DEB789837B836A83898175
:1000F0008A3031F48A819B81BC018DE00E946E00C0
:1001000080EC90E0FC018081882F90E0807299273C
:10011000892BB1F386EC90E02981FC01208380E0FB
:1001200090E00F900F900F90DF91CF910895CF93B3
:10013000DF93CDB7DEB781E890E02BE0FC012083B0
:1001400088E890E02DE730E0FC01318320838FE6E2
:1001500090E022E0FC01208384E890E0FC01118221
:10016000108280910E0190910F01A0911001B09129
:1001700011018093550190935601A0935701B093BC
:1001800058018FE590E02FE530E0F90120812068EB
:10019000FC0120830000DF91CF910895CF93DF937E
:1001A000CDB7DEB781E890E0FC0110820000DF915E
:1001B000CF910895CF93DF93CDB7DEB781E08093E1
:1001C00054010000DF91CF9108951F920F9200908B
:1001D0005F000F92112400905B000F922F933F93CA
:1001E0004F935F936F937F938F939F93AF93BF933F
:1001F000EF93FF93CF93DF93CDB7DEB78091550197
:1002000090915601A0915701B09158010197A10911
:10021000B1098093550190935601A0935701B09373
:1002200058018091550190915601A0915701B091CC
:100230005801892B8A2B8B2B91F40E94DA00809134
:100240000E0190910F01A0911001B09111018093C6
:10025000550190935601A0935701B09358010000A7
:10026000DF91CF91FF91EF91BF91AF919F918F91CE
:100270007F916F915F914F913F912F910F900092DD
:100280005B000F9000925F000F901F901895CF9326
:10029000DF9300D000D0CDB7DEB769837A838B833C
:1002A0009C8389819A81AB81BC8180930E0190935C
:1002B0000F01A0931001B093110180910E01909154
:1002C0000F01A0911001B0911101809355019093FD
:1002D0005601A0935701B093580100000F900F9062
:1002E0000F900F90DF91CF910895CF93DF93CDB70B
:1002F000DEB72C970FB6F894DEBF0FBECDBF6D836F
:100300007E838F83988729873A874B875C878D8187
:100310009E81AF81B88529853A854B855C85BC0176
:10032000CD010E942409DC01CB0189839A83AB8330
:10033000BC8389819A81AB81BC81892B8A2B8B2BD1
:1003400029F489859A85AB85BC8511C089859A85F4
:10035000AB85BC858D839E83AF83B88789819A8165
:10036000AB81BC8189879A87AB87BC87D0CFBC0122
:10037000CD012C960FB6F894DEBF0FBECDBFDF9136
:10038000CF910895CF93DF9300D000D01F92CDB7C7
:10039000DEB79D838C831A82198280E290E0FC0193
:1003A000808180958B8380915901882309F094C0C6
:1003B0008C819D818130910509F478C0823091054E
:1003C00009F47EC0892B09F087C08B81833019F036
:1003D0008B81882311F41D821C828B81813079F5F9
:1003E00082E090E09D838C8380911901813039F106
:1003F0001A8219821EC089819A810196880F991FDD
:10040000880F991F880F991F875E9E4FFC012081DE
:1004100089819A81880F991F880F991F880F991FCA
:10042000875E9E4FFC01208389819A8101969A8381
:10043000898389819A810497F0F2109239018B8126
:10044000823009F048C081E090E09D838C838091E8
:100450003901813009F43FC084E090E09A838983B8
:100460001EC089819A810197880F991F880F991F53
:10047000880F991F875E9E4FFC01208189819A8198
:10048000880F991F880F991F880F991F875E9E4FAD
:10049000FC01208389819A8101979A8389838981CC
:1004A0009A81892BF1F61092190115C081E09B8188
:1004B000992309F480E0882F90E09D838C830CC001
:1004C0008B81882319F480E090E002C082E090E004
:1004D0009D838C8301C000008C819D810F900F90C3
:1004E0000F900F900F90DF91CF910895CF93DF93EE
:1004F000CDB7DEB72A970FB6F894DEBF0FBECDBFDB
:100500009A87898780E290E0FC01808180958B83C7
:10051000809119018C83809121018D838091290123
:100520008E83809131018F838091390188878091FA
:100530004401909145019093470180934601809139
:1005400048019091490190934B0180934A01209179
:1005500046013091470180914A0190914B01220F51
:10056000331F220F331F220F331F820F931F8E5E04
:100570009E4FFC01108289859A858130910509F48E
:100580006EC08230910524F4892B09F45DC08CC3C0
:100590008230910519F0039761F086C38B81843016
:1005A00019F483E090E002C082E090E09A878987A6
:1005B0007BC382E090E0909345018093440183E007
:1005C00090E090934901809348011A82198227C0D4
:1005D00089819A81892B21F089819A81049769F414
:1005E00089819A81880F991F880F991F880F991FF9
:1005F000875E9E4FFC0110820DC089819A81880F11
:10060000991F880F991F880F991F875E9E4F21E0C1
:10061000FC01208389819A8101969A83898389814B
:100620009A810597A8F286E090E090934D0180931F
:100630004C018B81882319F480E090E002C083E0B4
:1006400090E09A87898730C381E090E09A87898714
:1006500010924D0110924C011092590125C38B81CB
:10066000843019F483E090E002C081E090E09A8742
:10067000898780914C0190914D01092E000CAA0BA5
:10068000BB0B40E050E026E030E0841B950B2817C0
:10069000390708F408C38A5B9F4FFC010C94460994
:1006A00080914601909147019093450180934401C8
:1006B00080914A0190914B0101969093490180935A
:1006C0004801809148019091490121E0069709F085
:1006D00020E0822F90E090934D0180934C01809117
:1006E000480190914901069709F0D8C28C81813068
:1006F00091F58091440190914501892B39F485E071
:1007000090E090934D0180934C01C8C280914401C8
:1007100090914501019739F481E090E090934D016B
:1007200080934C01BBC28091440190914501029796
:1007300039F485E090E090934D0180934C01AEC276
:1007400086E090E090934D0180934C0182E090E030
:100750009A878987A3C28D81813091F58091440168
:1007600090914501019739F484E090E090934D0118
:1007700080934C0193C2809144019091450102976E
:1007800039F481E090E090934D0180934C0186C252
:100790008091440190914501039739F485E090E000
:1007A00090934D0180934C0179C286E090E0909344
:1007B0004D0180934C0182E090E09A8789876EC258
:1007C0008091440190914501029739F484E090E0D2
:1007D00090934D0180934C0161C2809144019091AE
:1007E0004501039739F481E090E090934D018093A7
:1007F0004C0154C28091440190914501049739F411
:1008000084E090E090934D0180934C0147C286E0D4
:1008100090E090934D0180934C0182E090E09A87A4
:1008200089873CC280914601909147019093450190
:100830008093440180914A0190914B0101979093DC
:10084000490180934801809148019091490121E03C
:10085000019709F420E0822F90E090934D0180935E
:100860004C0121C28091460190914701892B31F0C2
:100870008091460190914701019702C080E090E08D
:10088000909345018093440180914A0190914B01DE
:10089000019690934901809348018091480190917D
:1008A0004901069709F09CC08C81813091F58091B7
:1008B000440190914501892B39F485E090E09093B3
:1008C0004D0180934C01EFC180914401909145010D
:1008D000019739F481E090E090934D0180934C01B1
:1008E000E2C18091440190914501029739F485E07D
:1008F00090E090934D0180934C01D5C186E090E04B
:1009000090934D0180934C0182E090E09A87898713
:10091000CAC18D81813091F580914401909145014A
:10092000019739F484E090E090934D0180934C015D
:10093000BAC18091440190914501029739F481E058
:1009400090E090934D0180934C01ADC180914401A2
:1009500090914501039739F485E090E090934D0123
:1009600080934C01A0C186E090E090934D0180936C
:100970004C0182E090E09A87898795C1809144017B
:1009800090914501029739F484E090E090934D01F5
:1009900080934C0188C18091440190914501039757
:1009A00039F481E090E090934D0180934C017BC13C
:1009B0008091440190914501049739F484E090E0DE
:1009C00090934D0180934C016EC186E090E090932E
:1009D0004D0180934C0182E090E09A87898763C142
:1009E0008091440190914501892B39F483E090E096
:1009F00090934D0180934C0156C182E090E090931A
:100A00004D0180934C014FC1809146019091470167
:100A10000196909345018093440180914A01909101
:100A20004B010196909349018093480180914801C0
:100A300090914901069709F09CC08C81813091F515
:100A40008091440190914501892B39F485E090E033
:100A500090934D0180934C0126C180914401909167
:100A60004501019739F481E090E090934D01809326
:100A70004C0119C18091440190914501029739F4CC
:100A800085E090E090934D0180934C010CC186E08D
:100A900090E090934D0180934C0182E090E09A8722
:100AA000898701C18D81813091F5809144019091B8
:100AB0004501019739F484E090E090934D018093D3
:100AC0004C01F1C08091440190914501029739F4A5
:100AD00081E090E090934D0180934C01E4C08091BF
:100AE000440190914501039739F485E090E090939B
:100AF0004D0180934C01D7C086E090E090934D016A
:100B000080934C0182E090E09A878987CCC08091E5
:100B1000440190914501029739F484E090E090936C
:100B20004D0180934C01BFC08091440190914501DB
:100B3000039739F481E090E090934D0180934C014C
:100B4000B2C08091440190914501049739F484E04A
:100B500090E090934D0180934C01A5C086E090E019
:100B600090934D0180934C0182E090E09A878987B1
:100B70009AC08091440190914501049739F482E034
:100B800090E090934D0180934C018DC083E090E004
:100B900090934D0180934C0186C0809146019091C5
:100BA00047010197909345018093440180914A0148
:100BB00090914B0101979093490180934801809156
:100BC000440190914501892BA1F485E090E0909338
:100BD0004D0180934C01809148019091490101970A
:100BE00009F05EC083E090E090934D0180934C014A
:100BF00057C08091480190914901019739F482E0F2
:100C000090E090934D0180934C014AC084E090E0C5
:100C100090934D0180934C0143C080914601909187
:100C200047010196909345018093440180914A01C8
:100C300090914B01019790934901809348018091D5
:100C4000440190914501049799F484E090E09093D9
:100C50004D0180934C018091480190914901019789
:100C600009F582E090E090934D0180934C011AC009
:100C70008091480190914901019739F483E090E017
:100C800090934D0180934C010DC085E090E09093CE
:100C90004D0180934C0106C0000005C0000003C058
:100CA000000001C00000000089859A85029719F4B0
:100CB0008FEF80935901209144013091450180913B
:100CC000480190914901220F331F220F331F220F39
:100CD000331F820F931F8E5E9E4F21E0FC01208305
:100CE00089859A852A960FB6F894DEBF0FBECDBFD0
:100CF000DF91CF910895CF93DF9300D000D000D043
:100D0000CDB7DEB79E838D831B828D819E8182301D
:100D1000910509F468C0833091052CF4009759F0CF
:100D20000197A9F1E2C08330910509F488C00497C6
:100D300009F4B1C0DAC01A8219821EC089819A8171
:100D40008E5E9E4FFC018081882F90E047E050E04E
:100D500029813A81BA01621B730B9B0102C0880F83
:100D6000991F2A95E2F7982F8B81892B8B83898194
:100D70009A8101969A83898389819A810897F4F2EE
:100D80008EEF8C8381E090E09E838D83AEC01A82CB
:100D900019821EC089819A81865E9E4FFC018081E6
:100DA000882F90E047E050E029813A81BA01621B28
:100DB000730B9B0102C0880F991F2A95E2F7982FA9
:100DC0008B81892B8B8389819A8101969A83898370
:100DD00089819A810897F4F28DEF8C8382E090E00C
:100DE0009E838D8382C01A8219821EC089819A8156
:100DF0008E5D9E4FFC018081882F90E047E050E09F
:100E000029813A81BA01621B730B9B0102C0880FD2
:100E1000991F2A95E2F7982F8B81892B8B838981E3
:100E20009A8101969A83898389819A810897F4F23D
:100E30008BEF8C8383E090E09E838D8356C01A8273
:100E400019821EC089819A81865D9E4FFC01808136
:100E5000882F90E047E050E029813A81BA01621B77
:100E6000730B9B0102C0880F991F2A95E2F7982FF8
:100E70008B81892B8B8389819A8101969A838983BF
:100E800089819A810897F4F287EF8C8384E090E05F
:100E90009E838D832AC01A8219821EC089819A81FD
:100EA0008E5C9E4FFC018081882F90E047E050E0EF
:100EB00029813A81BA01621B730B9B0102C0880F22
:100EC000991F2A95E2F7982F8B81892B8B83898133
:100ED0009A8101969A83898389819A810897F4F28D
:100EE0008FEE8C831E821D82000088E290E02B81B1
:100EF000FC0120838BE290E02C81FC0120838D811A
:100F00009E8126960FB6F894DEBF0FBECDBFDF914F
:100F1000CF9108950F931F93CF93DF93CDB7DEB793
:100F20002E970FB6F894DEBF0FBECDBF81E290E0E2
:100F3000FC01108282E290E02FEFFC01208387E227
:100F400090E02FEFFC01208388E290E0FC0110820A
:100F50008AE290E02FEFFC0120838BE290E0FC011D
:100F6000108286E0EEE4F1E0DE01199601900D9228
:100F70008A95E1F783E090E098878F8310925A0179
:100F800081E090E0A0E0B0E080935B0190935C0191
:100F9000A0935D01B0935E0180915B0190915C0133
:100FA000A0915D01B0915E0180935F01909360011B
:100FB000A0936101B09362018BE796E09093640186
:100FC00080936301109265018AE090E0A0E0B0E0B8
:100FD0008093660190936701A0936801B0936901C3
:100FE0008091660190916701A0916801B0916901BB
:100FF00080936A0190936B01A0936C01B0936D0193
:1010000082EC91E090936F0180936E0182E0809377
:10101000700186E990E0A0E0B0E0809371019093C8
:101020007201A0937301B09374018091710190914A
:101030007201A0917301B091740180937501909336
:101040007601A0937701B093780186E792E09093C0
:101050007A018093790189859A85FC018181928149
:10106000A381B4818B839C83AD83BE8381E090E0B8
:101070009A83898325C089819A81880F991F9E014F
:101080002F5F3F4F820F931F0896FC018081918153
:10109000FC0121813281438154818B819C81AD810E
:1010A000BE81BC01CD010E947501DC01CB018B83A7
:1010B0009C83AD83BE8389819A8101969A838983BB
:1010C00029813A818F81988528173907A0F28B8171
:1010D0009C81AD81BE81BC01CD010E9447010E946F
:1010E00097001A821982A0C089819A81880F991F5E
:1010F0009E012F5F3F4F820F931F0896FC01808156
:101100009181FC01258136814781508589819A81B1
:10111000880F991FBE016F5F7F4F860F971F08963C
:10112000FC0180819181FC0181819281A381B48144
:10113000281739074A075B0708F445C089819A8157
:10114000880F991F9E012F5F3F4F820F931F0896B4
:10115000FC010081118189819A81880F991F9E016C
:101160002F5F3F4F820F931F0896FC018081918172
:10117000FC012185328589819A81880F991FAE01F2
:101180004F5F5F4F840F951F0896FC01808191810E
:10119000FC018081082E000C990BF9010995F801DA
:1011A000808389819A81880F991F9E012F5F3F4F0D
:1011B000820F931F0896FC0180819181FC011582AA
:1011C00016821782108689819A81880F991F9E0145
:1011D0002F5F3F4F820F931F0896FC016081718142
:1011E00089819A81880F991F9E012F5F3F4F820F3F
:1011F000931F0896FC0180819181FC012581368135
:10120000478150858B819C81AD81BE81820F931F68
:10121000A41FB51FFB0185839683A783B0878981AF
:101220009A8101969A83898329813A818F81988551
:101230002817390708F458CF0000809154018823FB
:10124000E1F3109254014DCFA1E21A2EAA1BBB1B51
:10125000FD010DC0AA1FBB1FEE1FFF1FA217B30782
:10126000E407F50720F0A21BB30BE40BF50B661F98
:10127000771F881F991F1A9469F76095709580955C
:1012800090959B01AC01BD01CF010895EE0FFF1FAA
:101290000024001C0BBE0790F691E02D0994F894F1
:0212A000FFCF7E
:1012A20000000002000000006E00000000000100CB
:1012B200000000000000000000000100000000002B
:1012C2000001010000000000000101000000000018
:1012D2000001000000000000000000010101000008
:1012E20001010100020002000300030006005A018E
:0412F2006501700121
:00000001FF
